{
  "contractName": "Cruds",
  "abi": [
    {
      "inputs": [
        {
          "internalType": "string",
          "name": "doc_cid",
          "type": "string"
        }
      ],
      "name": "addDoctor",
      "outputs": [],
      "stateMutability": "nonpayable",
      "type": "function"
    },
    {
      "inputs": [],
      "name": "getDoctor",
      "outputs": [
        {
          "internalType": "string[]",
          "name": "",
          "type": "string[]"
        }
      ],
      "stateMutability": "view",
      "type": "function",
      "constant": true
    },
    {
      "inputs": [
        {
          "internalType": "string",
          "name": "patient_cid",
          "type": "string"
        }
      ],
      "name": "addPatient",
      "outputs": [],
      "stateMutability": "nonpayable",
      "type": "function"
    },
    {
      "inputs": [],
      "name": "getPatient",
      "outputs": [
        {
          "internalType": "string[]",
          "name": "",
          "type": "string[]"
        }
      ],
      "stateMutability": "view",
      "type": "function",
      "constant": true
    }
  ],
  "bytecode": "0x608060405234801561001057600080fd5b50610b8a806100206000396000f3fe608060405234801561001057600080fd5b506004361061004c5760003560e01c80630be61700146100515780633aaa59201461006d5780637b0f9a361461008b578063fb87cf94146100a9575b600080fd5b61006b6004803603810190610066919061061a565b6100c5565b005b6100756101e9565b60405161008291906107a4565b60405180910390f35b6100936102c2565b6040516100a091906107a4565b60405180910390f35b6100c360048036038101906100be919061061a565b61039b565b005b60005b6000805490508110156101af5760008082815481106100ea576100e96107c6565b5b9060005260206000200180546100ff90610824565b80601f016020809104026020016040519081016040528092919081815260200182805461012b90610824565b80156101785780601f1061014d57610100808354040283529160200191610178565b820191906000526020600020905b81548152906001019060200180831161015b57829003601f168201915b50505050509050828051906020012081805190602001200361019b5750506101e6565b5080806101a79061088e565b9150506100c8565b506000819080600181540180825580915050600190039060005260206000200160009091909190915090816101e49190610a82565b505b50565b60606000805480602002602001604051908101604052809291908181526020016000905b828210156102b957838290600052602060002001805461022c90610824565b80601f016020809104026020016040519081016040528092919081815260200182805461025890610824565b80156102a55780601f1061027a576101008083540402835291602001916102a5565b820191906000526020600020905b81548152906001019060200180831161028857829003601f168201915b50505050508152602001906001019061020d565b50505050905090565b60606001805480602002602001604051908101604052809291908181526020016000905b8282101561039257838290600052602060002001805461030590610824565b80601f016020809104026020016040519081016040528092919081815260200182805461033190610824565b801561037e5780601f106103535761010080835404028352916020019161037e565b820191906000526020600020905b81548152906001019060200180831161036157829003601f168201915b5050505050815260200190600101906102e6565b50505050905090565b60005b600180549050811015610486576000600182815481106103c1576103c06107c6565b5b9060005260206000200180546103d690610824565b80601f016020809104026020016040519081016040528092919081815260200182805461040290610824565b801561044f5780601f106104245761010080835404028352916020019161044f565b820191906000526020600020905b81548152906001019060200180831161043257829003601f168201915b5050505050905082805190602001208180519060200120036104725750506104bd565b50808061047e9061088e565b91505061039e565b506001819080600181540180825580915050600190039060005260206000200160009091909190915090816104bb9190610a82565b505b50565b6000604051905090565b600080fd5b600080fd5b600080fd5b600080fd5b6000601f19601f8301169050919050565b7f4e487b7100000000000000000000000000000000000000000000000000000000600052604160045260246000fd5b610527826104de565b810181811067ffffffffffffffff82111715610546576105456104ef565b5b80604052505050565b60006105596104c0565b9050610565828261051e565b919050565b600067ffffffffffffffff821115610585576105846104ef565b5b61058e826104de565b9050602081019050919050565b82818337600083830152505050565b60006105bd6105b88461056a565b61054f565b9050828152602081018484840111156105d9576105d86104d9565b5b6105e484828561059b565b509392505050565b600082601f830112610601576106006104d4565b5b81356106118482602086016105aa565b91505092915050565b6000602082840312156106305761062f6104ca565b5b600082013567ffffffffffffffff81111561064e5761064d6104cf565b5b61065a848285016105ec565b91505092915050565b600081519050919050565b600082825260208201905092915050565b6000819050602082019050919050565b600081519050919050565b600082825260208201905092915050565b60005b838110156106c95780820151818401526020810190506106ae565b60008484015250505050565b60006106e08261068f565b6106ea818561069a565b93506106fa8185602086016106ab565b610703816104de565b840191505092915050565b600061071a83836106d5565b905092915050565b6000602082019050919050565b600061073a82610663565b610744818561066e565b9350836020820285016107568561067f565b8060005b858110156107925784840389528151610773858261070e565b945061077e83610722565b925060208a0199505060018101905061075a565b50829750879550505050505092915050565b600060208201905081810360008301526107be818461072f565b905092915050565b7f4e487b7100000000000000000000000000000000000000000000000000000000600052603260045260246000fd5b7f4e487b7100000000000000000000000000000000000000000000000000000000600052602260045260246000fd5b6000600282049050600182168061083c57607f821691505b60208210810361084f5761084e6107f5565b5b50919050565b7f4e487b7100000000000000000000000000000000000000000000000000000000600052601160045260246000fd5b6000819050919050565b600061089982610884565b91507fffffffffffffffffffffffffffffffffffffffffffffffffffffffffffffffff82036108cb576108ca610855565b5b600182019050919050565b60008190508160005260206000209050919050565b60006020601f8301049050919050565b600082821b905092915050565b6000600883026109387fffffffffffffffffffffffffffffffffffffffffffffffffffffffffffffffff826108fb565b61094286836108fb565b95508019841693508086168417925050509392505050565b6000819050919050565b600061097f61097a61097584610884565b61095a565b610884565b9050919050565b6000819050919050565b61099983610964565b6109ad6109a582610986565b848454610908565b825550505050565b600090565b6109c26109b5565b6109cd818484610990565b505050565b5b818110156109f1576109e66000826109ba565b6001810190506109d3565b5050565b601f821115610a3657610a07816108d6565b610a10846108eb565b81016020851015610a1f578190505b610a33610a2b856108eb565b8301826109d2565b50505b505050565b600082821c905092915050565b6000610a5960001984600802610a3b565b1980831691505092915050565b6000610a728383610a48565b9150826002028217905092915050565b610a8b8261068f565b67ffffffffffffffff811115610aa457610aa36104ef565b5b610aae8254610824565b610ab98282856109f5565b600060209050601f831160018114610aec5760008415610ada578287015190505b610ae48582610a66565b865550610b4c565b601f198416610afa866108d6565b60005b82811015610b2257848901518255600182019150602085019450602081019050610afd565b86831015610b3f5784890151610b3b601f891682610a48565b8355505b6001600288020188555050505b50505050505056fea2646970667358221220a9ca5233efb69457acf5641dfc4e5f258149430bea9d5bbce6bdd544927ba29164736f6c63430008130033",
  "immutableReferences": {},
  "source": "// SPDX-License-Identifier: MIT\npragma solidity ^0.8.19;\n\ncontract Cruds {\n    string[] doctors;\n    string[] patients;\n\n    function addDoctor(string memory doc_cid) public {\n        for (uint i = 0; i < doctors.length; i++) {\n            string memory x = doctors[i];\n            if (keccak256(bytes(x)) == keccak256(bytes(doc_cid))) return;\n        }\n        doctors.push(doc_cid);\n    }\n\n    function getDoctor() public view returns (string[] memory) {\n        return doctors;\n    }\n\n    function addPatient(string memory patient_cid) public {\n        for (uint i = 0; i < patients.length; i++) {\n            string memory x = patients[i];\n            if (keccak256(bytes(x)) == keccak256(bytes(patient_cid))) return;\n        }\n        patients.push(patient_cid);\n    }\n\n    function getPatient() public view returns (string[] memory) {\n        return patients;\n    }\n}",
  "sourcePath": "C:\\Users\\Yatish Gharat\\Desktop\\Project\\Final\\Medilink Master\\backend\\contracts\\Cruds.sol",
  "compiler": {
    "name": "solc",
    "version": "0.8.19+commit.7dd6d404.Emscripten.clang"
  },
  "schemaVersion": "3.4.16",
  "updatedAt": "2024-10-26T06:46:48.395Z",
  "networkType": "ethereum",
  "devdoc": {
    "kind": "dev",
    "methods": {},
    "version": 1
  },
  "userdoc": {
    "kind": "user",
    "methods": {},
    "version": 1
  }
}